:020000040800F2
:1000000010100020290000081D0000081D00000835
:100010001D0000081D0000081D00000880B500AF8D
:1000200000F002F800BF80BD80B586B000AF1A4A6C
:100030001A4BD31A7B601A4B7B61184B3B61002330
:10004000FB600AE07A69531C7B613B69591C39618A
:1000500012781A70FB680133FB60FB687A689A4279
:10006000F0D8104A104BD31A3B600F4B3B61002372
:10007000BB6007E03B695A1C3A6100221A70BB68FA
:100080000133BB60BB683A689A42F3D800F0C6F807
:1000900000BF1837BD4680BD0800002000000020CA
:1000A00020040008100000200800002080B400AFE9
:1000B00000BFBD4680BC704780B400AF034B044A0C
:1000C0001A6000BFBD4680BC704700BF14100020FE
:1000D0001501000880B400AF034B044A1A6000BF4A
:1000E000BD4680BC704700BF141000203D010008D1
:1000F00080B400AF044B00221A70044B044A1A600B
:1001000000BFBD4680BC70471010002014100020B6
:10011000F100000880B500AF054B01221A700020E5
:1001200000F0ECF8034B044A1A6000BF80BD00BF2A
:100130001010002014100020F100000880B500AF5E
:10014000054B02221A70012000F0D8F8034B044A34
:100150001A6000BF80BD00BF1010002014100020E6
:10016000F100000880B483B000AF78607B68054A76
:100170001360054B054A1A6000BF0C37BD4680BCB2
:10018000704700BF080000201810002091010008EF
:1001900080B500AF0A4B00221A700A4B1A680A4B4E
:1001A0001B689A4201D900F0EFF8064B1B6818460D
:1001B000FFF7D8FF054B064A1A6000BF80BD00BF9D
:1001C0001C10002008000020000000201810002053
:1001D0009101000880B500AF00F03CF8FFF766FF22
:1001E000064B074A1A60074B074A1A60074B084A32
:1001F0001A60084B084A1A6000BF80BD201000201A
:100200006102000818100020650100082410002079
:10021000A503000814100020F100000880B500AF0D
:1002200000F08AF8FFF7D6FF064B1B689847064B8D
:100230001B689847054B1B689847054B1B689847F8
:10024000F2E700BF2010002018100020241000202A
:100250001410002080B400AF00BFBD4680BC7047C2
:1002600080B500AF084B00221A7000F03BF8024640
:10027000064B1A60054B1B681846FFF773FF044BCB
:10028000044A1A6000BF80BD1E1000200C00002030
:10029000201000209902000880B500AF054B012214
:1002A0001A70054800F00EF8044B054A1A6000BFAA
:1002B00080BD00BF1E100020A0860100201000207D
:1002C0006102000880B483B000AF786002E07B6810
:1002D000013B7B607B68002BF9D100BF0C37BD462A
:1002E00080BC704780B400AF034B1B68DBB218467C
:1002F000BD4680BC704700BF0808014080B483B091
:1003000000AF78607B68012B06D10A4B1B68094A55
:1003100043F40053136008E07B68002B05D1054BC4
:100320001B68044A23F40053136000BF0C37BD461A
:1003300080BC70470C08014080B400AF0F4B1B68B5
:100340000E4A43F0040313600D4B1B680C4A23F460
:10035000700313600A4B0A4A1B681360094B1B6841
:10036000084A23F470031360064B1B68054A43F0E8
:100370002233136000BFBD4680BC70471810024096
:10038000000801400408014080B400AF034B044A58
:100390001A6000BFBD4680BC704700BF241000201B
:1003A000C903000880B500AF044B00221A70FFF7A4
:1003B00091FE034B034A1A6000BF80BD1D10002050
:1003C00024100020A503000880B500AF044B0122D3
:1003D0001A70FFF771FE034B034A1A6000BF80BD1D
:1003E0001D10002024100020ED03000880B500AF90
:1003F000074B02221A70074B1B681846FFF762FF73
:10040000FFF768FE044B054A1A6000BF80BD00BFBD
:100410001D1000200400002024100020A503000867
:0804200014000000C0270900D0
:0400000508000000EF
:00000001FF
